{
  "_format": "hh-sol-artifact-1",
  "contractName": "MedicineTracking",
  "sourceName": "contracts/MedicineTracking.sol",
  "abi": [
    {
      "inputs": [
        {
          "internalType": "string",
          "name": "_batchId",
          "type": "string"
        },
        {
          "internalType": "string",
          "name": "_name",
          "type": "string"
        },
        {
          "internalType": "string",
          "name": "_manufacturer",
          "type": "string"
        },
        {
          "internalType": "uint256",
          "name": "_expiryDate",
          "type": "uint256"
        }
      ],
      "name": "createBatch",
      "outputs": [],
      "stateMutability": "nonpayable",
      "type": "function"
    },
    {
      "inputs": [
        {
          "internalType": "string",
          "name": "_batchId",
          "type": "string"
        }
      ],
      "name": "getMedicine",
      "outputs": [
        {
          "internalType": "string",
          "name": "",
          "type": "string"
        },
        {
          "internalType": "string",
          "name": "",
          "type": "string"
        },
        {
          "internalType": "string",
          "name": "",
          "type": "string"
        },
        {
          "internalType": "uint256",
          "name": "",
          "type": "uint256"
        },
        {
          "internalType": "address",
          "name": "",
          "type": "address"
        }
      ],
      "stateMutability": "view",
      "type": "function"
    },
    {
      "inputs": [
        {
          "internalType": "string",
          "name": "",
          "type": "string"
        }
      ],
      "name": "medicines",
      "outputs": [
        {
          "internalType": "string",
          "name": "batchId",
          "type": "string"
        },
        {
          "internalType": "string",
          "name": "name",
          "type": "string"
        },
        {
          "internalType": "string",
          "name": "manufacturer",
          "type": "string"
        },
        {
          "internalType": "uint256",
          "name": "expiryDate",
          "type": "uint256"
        },
        {
          "internalType": "address",
          "name": "currentOwner",
          "type": "address"
        }
      ],
      "stateMutability": "view",
      "type": "function"
    },
    {
      "inputs": [
        {
          "internalType": "string",
          "name": "_batchId",
          "type": "string"
        },
        {
          "internalType": "address",
          "name": "_newOwner",
          "type": "address"
        }
      ],
      "name": "transferMedicine",
      "outputs": [],
      "stateMutability": "nonpayable",
      "type": "function"
    }
  ],
  "bytecode": "0x608060405234801561001057600080fd5b50610f9c806100206000396000f3fe608060405234801561001057600080fd5b506004361061004c5760003560e01c806321b9da9914610051578063454f91331461008557806349332253146100a157806390c63477146100bd575b600080fd5b61006b600480360381019061006691906108d0565b6100f1565b60405161007c9594939291906109f2565b60405180910390f35b61009f600480360381019061009a9190610a86565b6102f5565b005b6100bb60048036038101906100b69190610b6d565b6103ec565b005b6100d760048036038101906100d291906108d0565b6104ff565b6040516100e89594939291906109f2565b60405180910390f35b60008180516020810182018051848252602083016020850120818352809550505050505060009150905080600001805461012a90610bf8565b80601f016020809104026020016040519081016040528092919081815260200182805461015690610bf8565b80156101a35780601f10610178576101008083540402835291602001916101a3565b820191906000526020600020905b81548152906001019060200180831161018657829003601f168201915b5050505050908060010180546101b890610bf8565b80601f01602080910402602001604051908101604052809291908181526020018280546101e490610bf8565b80156102315780601f1061020657610100808354040283529160200191610231565b820191906000526020600020905b81548152906001019060200180831161021457829003601f168201915b50505050509080600201805461024690610bf8565b80601f016020809104026020016040519081016040528092919081815260200182805461027290610bf8565b80156102bf5780601f10610294576101008083540402835291602001916102bf565b820191906000526020600020905b8154815290600101906020018083116102a257829003601f168201915b5050505050908060030154908060040160009054906101000a900473ffffffffffffffffffffffffffffffffffffffff16905085565b6040518060a001604052808581526020018481526020018381526020018281526020013373ffffffffffffffffffffffffffffffffffffffff168152506000856040516103429190610c65565b908152602001604051809103902060008201518160000190816103659190610e28565b50602082015181600101908161037b9190610e28565b5060408201518160020190816103919190610e28565b506060820151816003015560808201518160040160006101000a81548173ffffffffffffffffffffffffffffffffffffffff021916908373ffffffffffffffffffffffffffffffffffffffff16021790555090505050505050565b3373ffffffffffffffffffffffffffffffffffffffff166000836040516104139190610c65565b908152602001604051809103902060040160009054906101000a900473ffffffffffffffffffffffffffffffffffffffff1673ffffffffffffffffffffffffffffffffffffffff161461049b576040517f08c379a000000000000000000000000000000000000000000000000000000000815260040161049290610f46565b60405180910390fd5b806000836040516104ac9190610c65565b908152602001604051809103902060040160006101000a81548173ffffffffffffffffffffffffffffffffffffffff021916908373ffffffffffffffffffffffffffffffffffffffff1602179055505050565b6060806060600080600080876040516105189190610c65565b90815260200160405180910390206040518060a001604052908160008201805461054190610bf8565b80601f016020809104026020016040519081016040528092919081815260200182805461056d90610bf8565b80156105ba5780601f1061058f576101008083540402835291602001916105ba565b820191906000526020600020905b81548152906001019060200180831161059d57829003601f168201915b505050505081526020016001820180546105d390610bf8565b80601f01602080910402602001604051908101604052809291908181526020018280546105ff90610bf8565b801561064c5780601f106106215761010080835404028352916020019161064c565b820191906000526020600020905b81548152906001019060200180831161062f57829003601f168201915b5050505050815260200160028201805461066590610bf8565b80601f016020809104026020016040519081016040528092919081815260200182805461069190610bf8565b80156106de5780601f106106b3576101008083540402835291602001916106de565b820191906000526020600020905b8154815290600101906020018083116106c157829003601f168201915b50505050508152602001600382015481526020016004820160009054906101000a900473ffffffffffffffffffffffffffffffffffffffff1673ffffffffffffffffffffffffffffffffffffffff1673ffffffffffffffffffffffffffffffffffffffff1681525050905080600001518160200151826040015183606001518460800151955095509550955095505091939590929450565b6000604051905090565b600080fd5b600080fd5b600080fd5b600080fd5b6000601f19601f8301169050919050565b7f4e487b7100000000000000000000000000000000000000000000000000000000600052604160045260246000fd5b6107dd82610794565b810181811067ffffffffffffffff821117156107fc576107fb6107a5565b5b80604052505050565b600061080f610776565b905061081b82826107d4565b919050565b600067ffffffffffffffff82111561083b5761083a6107a5565b5b61084482610794565b9050602081019050919050565b82818337600083830152505050565b600061087361086e84610820565b610805565b90508281526020810184848401111561088f5761088e61078f565b5b61089a848285610851565b509392505050565b600082601f8301126108b7576108b661078a565b5b81356108c7848260208601610860565b91505092915050565b6000602082840312156108e6576108e5610780565b5b600082013567ffffffffffffffff81111561090457610903610785565b5b610910848285016108a2565b91505092915050565b600081519050919050565b600082825260208201905092915050565b60005b83811015610953578082015181840152602081019050610938565b60008484015250505050565b600061096a82610919565b6109748185610924565b9350610984818560208601610935565b61098d81610794565b840191505092915050565b6000819050919050565b6109ab81610998565b82525050565b600073ffffffffffffffffffffffffffffffffffffffff82169050919050565b60006109dc826109b1565b9050919050565b6109ec816109d1565b82525050565b600060a0820190508181036000830152610a0c818861095f565b90508181036020830152610a20818761095f565b90508181036040830152610a34818661095f565b9050610a4360608301856109a2565b610a5060808301846109e3565b9695505050505050565b610a6381610998565b8114610a6e57600080fd5b50565b600081359050610a8081610a5a565b92915050565b60008060008060808587031215610aa057610a9f610780565b5b600085013567ffffffffffffffff811115610abe57610abd610785565b5b610aca878288016108a2565b945050602085013567ffffffffffffffff811115610aeb57610aea610785565b5b610af7878288016108a2565b935050604085013567ffffffffffffffff811115610b1857610b17610785565b5b610b24878288016108a2565b9250506060610b3587828801610a71565b91505092959194509250565b610b4a816109d1565b8114610b5557600080fd5b50565b600081359050610b6781610b41565b92915050565b60008060408385031215610b8457610b83610780565b5b600083013567ffffffffffffffff811115610ba257610ba1610785565b5b610bae858286016108a2565b9250506020610bbf85828601610b58565b9150509250929050565b7f4e487b7100000000000000000000000000000000000000000000000000000000600052602260045260246000fd5b60006002820490506001821680610c1057607f821691505b602082108103610c2357610c22610bc9565b5b50919050565b600081905092915050565b6000610c3f82610919565b610c498185610c29565b9350610c59818560208601610935565b80840191505092915050565b6000610c718284610c34565b915081905092915050565b60008190508160005260206000209050919050565b60006020601f8301049050919050565b600082821b905092915050565b600060088302610cde7fffffffffffffffffffffffffffffffffffffffffffffffffffffffffffffffff82610ca1565b610ce88683610ca1565b95508019841693508086168417925050509392505050565b6000819050919050565b6000610d25610d20610d1b84610998565b610d00565b610998565b9050919050565b6000819050919050565b610d3f83610d0a565b610d53610d4b82610d2c565b848454610cae565b825550505050565b600090565b610d68610d5b565b610d73818484610d36565b505050565b5b81811015610d9757610d8c600082610d60565b600181019050610d79565b5050565b601f821115610ddc57610dad81610c7c565b610db684610c91565b81016020851015610dc5578190505b610dd9610dd185610c91565b830182610d78565b50505b505050565b600082821c905092915050565b6000610dff60001984600802610de1565b1980831691505092915050565b6000610e188383610dee565b9150826002028217905092915050565b610e3182610919565b67ffffffffffffffff811115610e4a57610e496107a5565b5b610e548254610bf8565b610e5f828285610d9b565b600060209050601f831160018114610e925760008415610e80578287015190505b610e8a8582610e0c565b865550610ef2565b601f198416610ea086610c7c565b60005b82811015610ec857848901518255600182019150602085019450602081019050610ea3565b86831015610ee55784890151610ee1601f891682610dee565b8355505b6001600288020188555050505b505050505050565b7f4e6f74206f776e65720000000000000000000000000000000000000000000000600082015250565b6000610f30600983610924565b9150610f3b82610efa565b602082019050919050565b60006020820190508181036000830152610f5f81610f23565b905091905056fea2646970667358221220697a8c61b8b1415aaf98e8c2ef8d16386f6449ad942e1f323a3779c068ff4e6064736f6c63430008140033",
  "linkReferences": {},
  "deployedLinkReferences": {}
}